{
	"contracts/SimpleStorage.sol": {
		"SimpleStorage": {
			"abi": [
				{
					"inputs": [
						{
							"internalType": "string",
							"name": "_name",
							"type": "string"
						},
						{
							"internalType": "uint256",
							"name": "_favNumber",
							"type": "uint256"
						}
					],
					"name": "addPerson",
					"outputs": [],
					"stateMutability": "nonpayable",
					"type": "function"
				},
				{
					"inputs": [],
					"name": "favNumber",
					"outputs": [
						{
							"internalType": "uint256",
							"name": "",
							"type": "uint256"
						}
					],
					"stateMutability": "view",
					"type": "function"
				},
				{
					"inputs": [
						{
							"internalType": "string",
							"name": "",
							"type": "string"
						}
					],
					"name": "nameToFavNumber",
					"outputs": [
						{
							"internalType": "uint256",
							"name": "",
							"type": "uint256"
						}
					],
					"stateMutability": "view",
					"type": "function"
				},
				{
					"inputs": [
						{
							"internalType": "uint256",
							"name": "",
							"type": "uint256"
						}
					],
					"name": "people",
					"outputs": [
						{
							"internalType": "uint256",
							"name": "favNumber",
							"type": "uint256"
						},
						{
							"internalType": "string",
							"name": "name",
							"type": "string"
						}
					],
					"stateMutability": "view",
					"type": "function"
				},
				{
					"inputs": [],
					"name": "retrieve",
					"outputs": [
						{
							"internalType": "uint256",
							"name": "",
							"type": "uint256"
						}
					],
					"stateMutability": "view",
					"type": "function"
				},
				{
					"inputs": [
						{
							"internalType": "uint256",
							"name": "_favNumber",
							"type": "uint256"
						}
					],
					"name": "store",
					"outputs": [],
					"stateMutability": "nonpayable",
					"type": "function"
				}
			],
			"devdoc": {
				"kind": "dev",
				"methods": {},
				"version": 1
			},
			"evm": {
				"assembly": "    /* \"contracts/SimpleStorage.sol\":66:616  contract SimpleStorage{... */\n  mstore(0x40, 0x80)\n  callvalue\n  dup1\n  iszero\n  tag_1\n  jumpi\n  0x00\n  dup1\n  revert\ntag_1:\n  pop\n  dataSize(sub_0)\n  dup1\n  dataOffset(sub_0)\n  0x00\n  codecopy\n  0x00\n  return\nstop\n\nsub_0: assembly {\n        /* \"contracts/SimpleStorage.sol\":66:616  contract SimpleStorage{... */\n      mstore(0x40, 0x80)\n      callvalue\n      dup1\n      iszero\n      tag_1\n      jumpi\n      0x00\n      dup1\n      revert\n    tag_1:\n      pop\n      jumpi(tag_2, lt(calldatasize, 0x04))\n      shr(0xe0, calldataload(0x00))\n      dup1\n      0x2e64cec1\n      eq\n      tag_3\n      jumpi\n      dup1\n      0x43ec8f47\n      eq\n      tag_4\n      jumpi\n      dup1\n      0x6057361d\n      eq\n      tag_5\n      jumpi\n      dup1\n      0x6f760f41\n      eq\n      tag_6\n      jumpi\n      dup1\n      0x9e7a13ad\n      eq\n      tag_7\n      jumpi\n      dup1\n      0xc7a0d9f6\n      eq\n      tag_8\n      jumpi\n    tag_2:\n      0x00\n      dup1\n      revert\n        /* \"contracts/SimpleStorage.sol\":360:440  function retrieve() public view returns (uint256){... */\n    tag_3:\n      tag_9\n      tag_10\n      jump\t// in\n    tag_9:\n      mload(0x40)\n      dup1\n      dup3\n      dup2\n      mstore\n      0x20\n      add\n      swap2\n      pop\n      pop\n      mload(0x40)\n      dup1\n      swap2\n      sub\n      swap1\n      return\n        /* \"contracts/SimpleStorage.sol\":221:270  mapping(string => uint256) public nameToFavNumber */\n    tag_4:\n      tag_11\n      0x04\n      dup1\n      calldatasize\n      sub\n      0x20\n      dup2\n      lt\n      iszero\n      tag_12\n      jumpi\n      0x00\n      dup1\n      revert\n    tag_12:\n      dup2\n      add\n      swap1\n      dup1\n      dup1\n      calldataload\n      swap1\n      0x20\n      add\n      swap1\n      0x0100000000\n      dup2\n      gt\n      iszero\n      tag_13\n      jumpi\n      0x00\n      dup1\n      revert\n    tag_13:\n      dup3\n      add\n      dup4\n      0x20\n      dup3\n      add\n      gt\n      iszero\n      tag_14\n      jumpi\n      0x00\n      dup1\n      revert\n    tag_14:\n      dup1\n      calldataload\n      swap1\n      0x20\n      add\n      swap2\n      dup5\n      0x01\n      dup4\n      mul\n      dup5\n      add\n      gt\n      0x0100000000\n      dup4\n      gt\n      or\n      iszero\n      tag_15\n      jumpi\n      0x00\n      dup1\n      revert\n    tag_15:\n      swap2\n      swap1\n      dup1\n      dup1\n      0x1f\n      add\n      0x20\n      dup1\n      swap2\n      div\n      mul\n      0x20\n      add\n      mload(0x40)\n      swap1\n      dup2\n      add\n      0x40\n      mstore\n      dup1\n      swap4\n      swap3\n      swap2\n      swap1\n      dup2\n      dup2\n      mstore\n      0x20\n      add\n      dup4\n      dup4\n      dup1\n      dup3\n      dup5\n      calldatacopy\n      0x00\n      dup2\n      dup5\n      add\n      mstore\n      not(0x1f)\n      0x1f\n      dup3\n      add\n      and\n      swap1\n      pop\n      dup1\n      dup4\n      add\n      swap3\n      pop\n      pop\n      pop\n      pop\n      pop\n      pop\n      pop\n      swap2\n      swap3\n      swap2\n      swap3\n      swap1\n      pop\n      pop\n      pop\n      tag_16\n      jump\t// in\n    tag_11:\n      mload(0x40)\n      dup1\n      dup3\n      dup2\n      mstore\n      0x20\n      add\n      swap2\n      pop\n      pop\n      mload(0x40)\n      dup1\n      swap2\n      sub\n      swap1\n      return\n        /* \"contracts/SimpleStorage.sol\":276:353  function store(uint256 _favNumber) public {... */\n    tag_5:\n      tag_17\n      0x04\n      dup1\n      calldatasize\n      sub\n      0x20\n      dup2\n      lt\n      iszero\n      tag_18\n      jumpi\n      0x00\n      dup1\n      revert\n    tag_18:\n      dup2\n      add\n      swap1\n      dup1\n      dup1\n      calldataload\n      swap1\n      0x20\n      add\n      swap1\n      swap3\n      swap2\n      swap1\n      pop\n      pop\n      pop\n      tag_19\n      jump\t// in\n    tag_17:\n      stop\n        /* \"contracts/SimpleStorage.sol\":446:609  function addPerson (string memory _name, uint256 _favNumber) public {... */\n    tag_6:\n      tag_20\n      0x04\n      dup1\n      calldatasize\n      sub\n      0x40\n      dup2\n      lt\n      iszero\n      tag_21\n      jumpi\n      0x00\n      dup1\n      revert\n    tag_21:\n      dup2\n      add\n      swap1\n      dup1\n      dup1\n      calldataload\n      swap1\n      0x20\n      add\n      swap1\n      0x0100000000\n      dup2\n      gt\n      iszero\n      tag_22\n      jumpi\n      0x00\n      dup1\n      revert\n    tag_22:\n      dup3\n      add\n      dup4\n      0x20\n      dup3\n      add\n      gt\n      iszero\n      tag_23\n      jumpi\n      0x00\n      dup1\n      revert\n    tag_23:\n      dup1\n      calldataload\n      swap1\n      0x20\n      add\n      swap2\n      dup5\n      0x01\n      dup4\n      mul\n      dup5\n      add\n      gt\n      0x0100000000\n      dup4\n      gt\n      or\n      iszero\n      tag_24\n      jumpi\n      0x00\n      dup1\n      revert\n    tag_24:\n      swap2\n      swap1\n      dup1\n      dup1\n      0x1f\n      add\n      0x20\n      dup1\n      swap2\n      div\n      mul\n      0x20\n      add\n      mload(0x40)\n      swap1\n      dup2\n      add\n      0x40\n      mstore\n      dup1\n      swap4\n      swap3\n      swap2\n      swap1\n      dup2\n      dup2\n      mstore\n      0x20\n      add\n      dup4\n      dup4\n      dup1\n      dup3\n      dup5\n      calldatacopy\n      0x00\n      dup2\n      dup5\n      add\n      mstore\n      not(0x1f)\n      0x1f\n      dup3\n      add\n      and\n      swap1\n      pop\n      dup1\n      dup4\n      add\n      swap3\n      pop\n      pop\n      pop\n      pop\n      pop\n      pop\n      pop\n      swap2\n      swap3\n      swap2\n      swap3\n      swap1\n      dup1\n      calldataload\n      swap1\n      0x20\n      add\n      swap1\n      swap3\n      swap2\n      swap1\n      pop\n      pop\n      pop\n      tag_25\n      jump\t// in\n    tag_20:\n      stop\n        /* \"contracts/SimpleStorage.sol\":193:215  People[] public people */\n    tag_7:\n      tag_26\n      0x04\n      dup1\n      calldatasize\n      sub\n      0x20\n      dup2\n      lt\n      iszero\n      tag_27\n      jumpi\n      0x00\n      dup1\n      revert\n    tag_27:\n      dup2\n      add\n      swap1\n      dup1\n      dup1\n      calldataload\n      swap1\n      0x20\n      add\n      swap1\n      swap3\n      swap2\n      swap1\n      pop\n      pop\n      pop\n      tag_28\n      jump\t// in\n    tag_26:\n      mload(0x40)\n      dup1\n      dup4\n      dup2\n      mstore\n      0x20\n      add\n      dup1\n      0x20\n      add\n      dup3\n      dup2\n      sub\n      dup3\n      mstore\n      dup4\n      dup2\n      dup2\n      mload\n      dup2\n      mstore\n      0x20\n      add\n      swap2\n      pop\n      dup1\n      mload\n      swap1\n      0x20\n      add\n      swap1\n      dup1\n      dup4\n      dup4\n      0x00\n    tag_29:\n      dup4\n      dup2\n      lt\n      iszero\n      tag_31\n      jumpi\n      dup1\n      dup3\n      add\n      mload\n      dup2\n      dup5\n      add\n      mstore\n      0x20\n      dup2\n      add\n      swap1\n      pop\n      jump(tag_29)\n    tag_31:\n      pop\n      pop\n      pop\n      pop\n      swap1\n      pop\n      swap1\n      dup2\n      add\n      swap1\n      0x1f\n      and\n      dup1\n      iszero\n      tag_32\n      jumpi\n      dup1\n      dup3\n      sub\n      dup1\n      mload\n      0x01\n      dup4\n      0x20\n      sub\n      0x0100\n      exp\n      sub\n      not\n      and\n      dup2\n      mstore\n      0x20\n      add\n      swap2\n      pop\n    tag_32:\n      pop\n      swap4\n      pop\n      pop\n      pop\n      pop\n      mload(0x40)\n      dup1\n      swap2\n      sub\n      swap1\n      return\n        /* \"contracts/SimpleStorage.sol\":93:117  uint256 public favNumber */\n    tag_8:\n      tag_33\n      tag_34\n      jump\t// in\n    tag_33:\n      mload(0x40)\n      dup1\n      dup3\n      dup2\n      mstore\n      0x20\n      add\n      swap2\n      pop\n      pop\n      mload(0x40)\n      dup1\n      swap2\n      sub\n      swap1\n      return\n        /* \"contracts/SimpleStorage.sol\":360:440  function retrieve() public view returns (uint256){... */\n    tag_10:\n        /* \"contracts/SimpleStorage.sol\":401:408  uint256 */\n      0x00\n        /* \"contracts/SimpleStorage.sol\":425:434  favNumber */\n      dup1\n      sload\n        /* \"contracts/SimpleStorage.sol\":418:434  return favNumber */\n      swap1\n      pop\n        /* \"contracts/SimpleStorage.sol\":360:440  function retrieve() public view returns (uint256){... */\n      swap1\n      jump\t// out\n        /* \"contracts/SimpleStorage.sol\":221:270  mapping(string => uint256) public nameToFavNumber */\n    tag_16:\n      0x02\n      dup2\n      dup1\n      mload\n      0x20\n      dup2\n      add\n      dup3\n      add\n      dup1\n      mload\n      dup5\n      dup3\n      mstore\n      0x20\n      dup4\n      add\n      0x20\n      dup6\n      add\n      keccak256\n      dup2\n      dup4\n      mstore\n      dup1\n      swap6\n      pop\n      pop\n      pop\n      pop\n      pop\n      pop\n      0x00\n      swap2\n      pop\n      swap1\n      pop\n      sload\n      dup2\n      jump\t// out\n        /* \"contracts/SimpleStorage.sol\":276:353  function store(uint256 _favNumber) public {... */\n    tag_19:\n        /* \"contracts/SimpleStorage.sol\":337:347  _favNumber */\n      dup1\n        /* \"contracts/SimpleStorage.sol\":327:336  favNumber */\n      0x00\n        /* \"contracts/SimpleStorage.sol\":327:347  favNumber=_favNumber */\n      dup2\n      swap1\n      sstore\n      pop\n        /* \"contracts/SimpleStorage.sol\":276:353  function store(uint256 _favNumber) public {... */\n      pop\n      jump\t// out\n        /* \"contracts/SimpleStorage.sol\":446:609  function addPerson (string memory _name, uint256 _favNumber) public {... */\n    tag_25:\n        /* \"contracts/SimpleStorage.sol\":523:529  people */\n      0x01\n        /* \"contracts/SimpleStorage.sol\":535:560  People(_favNumber, _name) */\n      mload(0x40)\n      dup1\n      0x40\n      add\n      0x40\n      mstore\n      dup1\n        /* \"contracts/SimpleStorage.sol\":542:552  _favNumber */\n      dup4\n        /* \"contracts/SimpleStorage.sol\":535:560  People(_favNumber, _name) */\n      dup2\n      mstore\n      0x20\n      add\n        /* \"contracts/SimpleStorage.sol\":554:559  _name */\n      dup5\n        /* \"contracts/SimpleStorage.sol\":535:560  People(_favNumber, _name) */\n      dup2\n      mstore\n      pop\n        /* \"contracts/SimpleStorage.sol\":523:561  people.push(People(_favNumber, _name)) */\n      swap1\n      dup1\n      0x01\n      dup2\n      sload\n      add\n      dup1\n      dup3\n      sstore\n      dup1\n      swap2\n      pop\n      pop\n      0x01\n      swap1\n      sub\n      swap1\n      0x00\n      mstore\n      keccak256(0x00, 0x20)\n      swap1\n      0x02\n      mul\n      add\n      0x00\n      swap1\n      swap2\n      swap1\n      swap2\n      swap1\n      swap2\n      pop\n      0x00\n      dup3\n      add\n      mload\n      dup2\n      0x00\n      add\n      sstore\n      0x20\n      dup3\n      add\n      mload\n      dup2\n      0x01\n      add\n      swap1\n      dup1\n      mload\n      swap1\n      0x20\n      add\n      swap1\n      tag_39\n      swap3\n      swap2\n      swap1\n      tag_40\n      jump\t// in\n    tag_39:\n      pop\n      pop\n      pop\n        /* \"contracts/SimpleStorage.sol\":593:603  _favNumber */\n      dup1\n        /* \"contracts/SimpleStorage.sol\":570:585  nameToFavNumber */\n      0x02\n        /* \"contracts/SimpleStorage.sol\":586:591  _name */\n      dup4\n        /* \"contracts/SimpleStorage.sol\":570:592  nameToFavNumber[_name] */\n      mload(0x40)\n      dup1\n      dup3\n      dup1\n      mload\n      swap1\n      0x20\n      add\n      swap1\n      dup1\n      dup4\n      dup4\n    tag_41:\n      0x20\n      dup4\n      lt\n      tag_43\n      jumpi\n      dup1\n      mload\n      dup3\n      mstore\n      0x20\n      dup3\n      add\n      swap2\n      pop\n      0x20\n      dup2\n      add\n      swap1\n      pop\n      0x20\n      dup4\n      sub\n      swap3\n      pop\n      jump(tag_41)\n    tag_43:\n      0x01\n      dup4\n      0x20\n      sub\n      0x0100\n      exp\n      sub\n      dup1\n      not\n      dup3\n      mload\n      and\n      dup2\n      dup5\n      mload\n      and\n      dup1\n      dup3\n      or\n      dup6\n      mstore\n      pop\n      pop\n      pop\n      pop\n      pop\n      pop\n      swap1\n      pop\n      add\n      swap2\n      pop\n      pop\n      swap1\n      dup2\n      mstore\n      0x20\n      add\n      mload(0x40)\n      dup1\n      swap2\n      sub\n      swap1\n      keccak256\n        /* \"contracts/SimpleStorage.sol\":570:603  nameToFavNumber[_name]=_favNumber */\n      dup2\n      swap1\n      sstore\n      pop\n        /* \"contracts/SimpleStorage.sol\":446:609  function addPerson (string memory _name, uint256 _favNumber) public {... */\n      pop\n      pop\n      jump\t// out\n        /* \"contracts/SimpleStorage.sol\":193:215  People[] public people */\n    tag_28:\n      0x01\n      dup2\n      dup2\n      sload\n      dup2\n      lt\n      tag_44\n      jumpi\n      invalid\n    tag_44:\n      swap1\n      0x00\n      mstore\n      keccak256(0x00, 0x20)\n      swap1\n      0x02\n      mul\n      add\n      0x00\n      swap2\n      pop\n      swap1\n      pop\n      dup1\n      0x00\n      add\n      sload\n      swap1\n      dup1\n      0x01\n      add\n      dup1\n      sload\n      0x01\n      dup2\n      0x01\n      and\n      iszero\n      0x0100\n      mul\n      sub\n      and\n      0x02\n      swap1\n      div\n      dup1\n      0x1f\n      add\n      0x20\n      dup1\n      swap2\n      div\n      mul\n      0x20\n      add\n      mload(0x40)\n      swap1\n      dup2\n      add\n      0x40\n      mstore\n      dup1\n      swap3\n      swap2\n      swap1\n      dup2\n      dup2\n      mstore\n      0x20\n      add\n      dup3\n      dup1\n      sload\n      0x01\n      dup2\n      0x01\n      and\n      iszero\n      0x0100\n      mul\n      sub\n      and\n      0x02\n      swap1\n      div\n      dup1\n      iszero\n      tag_46\n      jumpi\n      dup1\n      0x1f\n      lt\n      tag_47\n      jumpi\n      0x0100\n      dup1\n      dup4\n      sload\n      div\n      mul\n      dup4\n      mstore\n      swap2\n      0x20\n      add\n      swap2\n      jump(tag_46)\n    tag_47:\n      dup3\n      add\n      swap2\n      swap1\n      0x00\n      mstore\n      keccak256(0x00, 0x20)\n      swap1\n    tag_48:\n      dup2\n      sload\n      dup2\n      mstore\n      swap1\n      0x01\n      add\n      swap1\n      0x20\n      add\n      dup1\n      dup4\n      gt\n      tag_48\n      jumpi\n      dup3\n      swap1\n      sub\n      0x1f\n      and\n      dup3\n      add\n      swap2\n    tag_46:\n      pop\n      pop\n      pop\n      pop\n      pop\n      swap1\n      pop\n      dup3\n      jump\t// out\n        /* \"contracts/SimpleStorage.sol\":93:117  uint256 public favNumber */\n    tag_34:\n      sload(0x00)\n      dup2\n      jump\t// out\n    tag_40:\n      dup3\n      dup1\n      sload\n      0x01\n      dup2\n      0x01\n      and\n      iszero\n      0x0100\n      mul\n      sub\n      and\n      0x02\n      swap1\n      div\n      swap1\n      0x00\n      mstore\n      keccak256(0x00, 0x20)\n      swap1\n      0x1f\n      add\n      0x20\n      swap1\n      div\n      dup2\n      add\n      swap3\n      dup3\n      0x1f\n      lt\n      tag_50\n      jumpi\n      dup1\n      mload\n      not(0xff)\n      and\n      dup4\n      dup1\n      add\n      or\n      dup6\n      sstore\n      jump(tag_49)\n    tag_50:\n      dup3\n      dup1\n      add\n      0x01\n      add\n      dup6\n      sstore\n      dup3\n      iszero\n      tag_49\n      jumpi\n      swap2\n      dup3\n      add\n    tag_51:\n      dup3\n      dup2\n      gt\n      iszero\n      tag_52\n      jumpi\n      dup3\n      mload\n      dup3\n      sstore\n      swap2\n      0x20\n      add\n      swap2\n      swap1\n      0x01\n      add\n      swap1\n      jump(tag_51)\n    tag_52:\n    tag_49:\n      pop\n      swap1\n      pop\n      tag_53\n      swap2\n      swap1\n      tag_54\n      jump\t// in\n    tag_53:\n      pop\n      swap1\n      jump\t// out\n    tag_54:\n    tag_55:\n      dup1\n      dup3\n      gt\n      iszero\n      tag_56\n      jumpi\n      0x00\n      dup2\n      0x00\n      swap1\n      sstore\n      pop\n      0x01\n      add\n      jump(tag_55)\n    tag_56:\n      pop\n      swap1\n      jump\t// out\n\n    auxdata: 0xa2646970667358221220ca44463da2cd1a91960f7b155d37158013e179c231d728cf86eaa958eb6e106364736f6c634300060c0033\n}\n",
				"bytecode": {
					"linkReferences": {},
					"object": "608060405234801561001057600080fd5b506105d1806100206000396000f3fe608060405234801561001057600080fd5b50600436106100625760003560e01c80632e64cec11461006757806343ec8f47146100855780636057361d146101545780636f760f41146101825780639e7a13ad14610247578063c7a0d9f6146102f5575b600080fd5b61006f610313565b6040518082815260200191505060405180910390f35b61013e6004803603602081101561009b57600080fd5b81019080803590602001906401000000008111156100b857600080fd5b8201836020820111156100ca57600080fd5b803590602001918460018302840111640100000000831117156100ec57600080fd5b91908080601f016020809104026020016040519081016040528093929190818152602001838380828437600081840152601f19601f82011690508083019250505050505050919291929050505061031c565b6040518082815260200191505060405180910390f35b6101806004803603602081101561016a57600080fd5b810190808035906020019092919050505061034a565b005b6102456004803603604081101561019857600080fd5b81019080803590602001906401000000008111156101b557600080fd5b8201836020820111156101c757600080fd5b803590602001918460018302840111640100000000831117156101e957600080fd5b91908080601f016020809104026020016040519081016040528093929190818152602001838380828437600081840152601f19601f82011690508083019250505050505050919291929080359060200190929190505050610354565b005b6102736004803603602081101561025d57600080fd5b810190808035906020019092919050505061042f565b6040518083815260200180602001828103825283818151815260200191508051906020019080838360005b838110156102b957808201518184015260208101905061029e565b50505050905090810190601f1680156102e65780820380516001836020036101000a031916815260200191505b50935050505060405180910390f35b6102fd6104f8565b6040518082815260200191505060405180910390f35b60008054905090565b6002818051602081018201805184825260208301602085012081835280955050505050506000915090505481565b8060008190555050565b600160405180604001604052808381526020018481525090806001815401808255809150506001900390600052602060002090600202016000909190919091506000820151816000015560208201518160010190805190602001906103ba9291906104fe565b505050806002836040518082805190602001908083835b602083106103f457805182526020820191506020810190506020830392506103d1565b6001836020036101000a0380198251168184511680821785525050505050509050019150509081526020016040518091039020819055505050565b6001818154811061043c57fe5b9060005260206000209060020201600091509050806000015490806001018054600181600116156101000203166002900480601f0160208091040260200160405190810160405280929190818152602001828054600181600116156101000203166002900480156104ee5780601f106104c3576101008083540402835291602001916104ee565b820191906000526020600020905b8154815290600101906020018083116104d157829003601f168201915b5050505050905082565b60005481565b828054600181600116156101000203166002900490600052602060002090601f016020900481019282601f1061053f57805160ff191683800117855561056d565b8280016001018555821561056d579182015b8281111561056c578251825591602001919060010190610551565b5b50905061057a919061057e565b5090565b5b8082111561059757600081600090555060010161057f565b509056fea2646970667358221220ca44463da2cd1a91960f7b155d37158013e179c231d728cf86eaa958eb6e106364736f6c634300060c0033",
					"opcodes": "PUSH1 0x80 PUSH1 0x40 MSTORE CALLVALUE DUP1 ISZERO PUSH2 0x10 JUMPI PUSH1 0x0 DUP1 REVERT JUMPDEST POP PUSH2 0x5D1 DUP1 PUSH2 0x20 PUSH1 0x0 CODECOPY PUSH1 0x0 RETURN INVALID PUSH1 0x80 PUSH1 0x40 MSTORE CALLVALUE DUP1 ISZERO PUSH2 0x10 JUMPI PUSH1 0x0 DUP1 REVERT JUMPDEST POP PUSH1 0x4 CALLDATASIZE LT PUSH2 0x62 JUMPI PUSH1 0x0 CALLDATALOAD PUSH1 0xE0 SHR DUP1 PUSH4 0x2E64CEC1 EQ PUSH2 0x67 JUMPI DUP1 PUSH4 0x43EC8F47 EQ PUSH2 0x85 JUMPI DUP1 PUSH4 0x6057361D EQ PUSH2 0x154 JUMPI DUP1 PUSH4 0x6F760F41 EQ PUSH2 0x182 JUMPI DUP1 PUSH4 0x9E7A13AD EQ PUSH2 0x247 JUMPI DUP1 PUSH4 0xC7A0D9F6 EQ PUSH2 0x2F5 JUMPI JUMPDEST PUSH1 0x0 DUP1 REVERT JUMPDEST PUSH2 0x6F PUSH2 0x313 JUMP JUMPDEST PUSH1 0x40 MLOAD DUP1 DUP3 DUP2 MSTORE PUSH1 0x20 ADD SWAP2 POP POP PUSH1 0x40 MLOAD DUP1 SWAP2 SUB SWAP1 RETURN JUMPDEST PUSH2 0x13E PUSH1 0x4 DUP1 CALLDATASIZE SUB PUSH1 0x20 DUP2 LT ISZERO PUSH2 0x9B JUMPI PUSH1 0x0 DUP1 REVERT JUMPDEST DUP2 ADD SWAP1 DUP1 DUP1 CALLDATALOAD SWAP1 PUSH1 0x20 ADD SWAP1 PUSH5 0x100000000 DUP2 GT ISZERO PUSH2 0xB8 JUMPI PUSH1 0x0 DUP1 REVERT JUMPDEST DUP3 ADD DUP4 PUSH1 0x20 DUP3 ADD GT ISZERO PUSH2 0xCA JUMPI PUSH1 0x0 DUP1 REVERT JUMPDEST DUP1 CALLDATALOAD SWAP1 PUSH1 0x20 ADD SWAP2 DUP5 PUSH1 0x1 DUP4 MUL DUP5 ADD GT PUSH5 0x100000000 DUP4 GT OR ISZERO PUSH2 0xEC JUMPI PUSH1 0x0 DUP1 REVERT JUMPDEST SWAP2 SWAP1 DUP1 DUP1 PUSH1 0x1F ADD PUSH1 0x20 DUP1 SWAP2 DIV MUL PUSH1 0x20 ADD PUSH1 0x40 MLOAD SWAP1 DUP2 ADD PUSH1 0x40 MSTORE DUP1 SWAP4 SWAP3 SWAP2 SWAP1 DUP2 DUP2 MSTORE PUSH1 0x20 ADD DUP4 DUP4 DUP1 DUP3 DUP5 CALLDATACOPY PUSH1 0x0 DUP2 DUP5 ADD MSTORE PUSH1 0x1F NOT PUSH1 0x1F DUP3 ADD AND SWAP1 POP DUP1 DUP4 ADD SWAP3 POP POP POP POP POP POP POP SWAP2 SWAP3 SWAP2 SWAP3 SWAP1 POP POP POP PUSH2 0x31C JUMP JUMPDEST PUSH1 0x40 MLOAD DUP1 DUP3 DUP2 MSTORE PUSH1 0x20 ADD SWAP2 POP POP PUSH1 0x40 MLOAD DUP1 SWAP2 SUB SWAP1 RETURN JUMPDEST PUSH2 0x180 PUSH1 0x4 DUP1 CALLDATASIZE SUB PUSH1 0x20 DUP2 LT ISZERO PUSH2 0x16A JUMPI PUSH1 0x0 DUP1 REVERT JUMPDEST DUP2 ADD SWAP1 DUP1 DUP1 CALLDATALOAD SWAP1 PUSH1 0x20 ADD SWAP1 SWAP3 SWAP2 SWAP1 POP POP POP PUSH2 0x34A JUMP JUMPDEST STOP JUMPDEST PUSH2 0x245 PUSH1 0x4 DUP1 CALLDATASIZE SUB PUSH1 0x40 DUP2 LT ISZERO PUSH2 0x198 JUMPI PUSH1 0x0 DUP1 REVERT JUMPDEST DUP2 ADD SWAP1 DUP1 DUP1 CALLDATALOAD SWAP1 PUSH1 0x20 ADD SWAP1 PUSH5 0x100000000 DUP2 GT ISZERO PUSH2 0x1B5 JUMPI PUSH1 0x0 DUP1 REVERT JUMPDEST DUP3 ADD DUP4 PUSH1 0x20 DUP3 ADD GT ISZERO PUSH2 0x1C7 JUMPI PUSH1 0x0 DUP1 REVERT JUMPDEST DUP1 CALLDATALOAD SWAP1 PUSH1 0x20 ADD SWAP2 DUP5 PUSH1 0x1 DUP4 MUL DUP5 ADD GT PUSH5 0x100000000 DUP4 GT OR ISZERO PUSH2 0x1E9 JUMPI PUSH1 0x0 DUP1 REVERT JUMPDEST SWAP2 SWAP1 DUP1 DUP1 PUSH1 0x1F ADD PUSH1 0x20 DUP1 SWAP2 DIV MUL PUSH1 0x20 ADD PUSH1 0x40 MLOAD SWAP1 DUP2 ADD PUSH1 0x40 MSTORE DUP1 SWAP4 SWAP3 SWAP2 SWAP1 DUP2 DUP2 MSTORE PUSH1 0x20 ADD DUP4 DUP4 DUP1 DUP3 DUP5 CALLDATACOPY PUSH1 0x0 DUP2 DUP5 ADD MSTORE PUSH1 0x1F NOT PUSH1 0x1F DUP3 ADD AND SWAP1 POP DUP1 DUP4 ADD SWAP3 POP POP POP POP POP POP POP SWAP2 SWAP3 SWAP2 SWAP3 SWAP1 DUP1 CALLDATALOAD SWAP1 PUSH1 0x20 ADD SWAP1 SWAP3 SWAP2 SWAP1 POP POP POP PUSH2 0x354 JUMP JUMPDEST STOP JUMPDEST PUSH2 0x273 PUSH1 0x4 DUP1 CALLDATASIZE SUB PUSH1 0x20 DUP2 LT ISZERO PUSH2 0x25D JUMPI PUSH1 0x0 DUP1 REVERT JUMPDEST DUP2 ADD SWAP1 DUP1 DUP1 CALLDATALOAD SWAP1 PUSH1 0x20 ADD SWAP1 SWAP3 SWAP2 SWAP1 POP POP POP PUSH2 0x42F JUMP JUMPDEST PUSH1 0x40 MLOAD DUP1 DUP4 DUP2 MSTORE PUSH1 0x20 ADD DUP1 PUSH1 0x20 ADD DUP3 DUP2 SUB DUP3 MSTORE DUP4 DUP2 DUP2 MLOAD DUP2 MSTORE PUSH1 0x20 ADD SWAP2 POP DUP1 MLOAD SWAP1 PUSH1 0x20 ADD SWAP1 DUP1 DUP4 DUP4 PUSH1 0x0 JUMPDEST DUP4 DUP2 LT ISZERO PUSH2 0x2B9 JUMPI DUP1 DUP3 ADD MLOAD DUP2 DUP5 ADD MSTORE PUSH1 0x20 DUP2 ADD SWAP1 POP PUSH2 0x29E JUMP JUMPDEST POP POP POP POP SWAP1 POP SWAP1 DUP2 ADD SWAP1 PUSH1 0x1F AND DUP1 ISZERO PUSH2 0x2E6 JUMPI DUP1 DUP3 SUB DUP1 MLOAD PUSH1 0x1 DUP4 PUSH1 0x20 SUB PUSH2 0x100 EXP SUB NOT AND DUP2 MSTORE PUSH1 0x20 ADD SWAP2 POP JUMPDEST POP SWAP4 POP POP POP POP PUSH1 0x40 MLOAD DUP1 SWAP2 SUB SWAP1 RETURN JUMPDEST PUSH2 0x2FD PUSH2 0x4F8 JUMP JUMPDEST PUSH1 0x40 MLOAD DUP1 DUP3 DUP2 MSTORE PUSH1 0x20 ADD SWAP2 POP POP PUSH1 0x40 MLOAD DUP1 SWAP2 SUB SWAP1 RETURN JUMPDEST PUSH1 0x0 DUP1 SLOAD SWAP1 POP SWAP1 JUMP JUMPDEST PUSH1 0x2 DUP2 DUP1 MLOAD PUSH1 0x20 DUP2 ADD DUP3 ADD DUP1 MLOAD DUP5 DUP3 MSTORE PUSH1 0x20 DUP4 ADD PUSH1 0x20 DUP6 ADD KECCAK256 DUP2 DUP4 MSTORE DUP1 SWAP6 POP POP POP POP POP POP PUSH1 0x0 SWAP2 POP SWAP1 POP SLOAD DUP2 JUMP JUMPDEST DUP1 PUSH1 0x0 DUP2 SWAP1 SSTORE POP POP JUMP JUMPDEST PUSH1 0x1 PUSH1 0x40 MLOAD DUP1 PUSH1 0x40 ADD PUSH1 0x40 MSTORE DUP1 DUP4 DUP2 MSTORE PUSH1 0x20 ADD DUP5 DUP2 MSTORE POP SWAP1 DUP1 PUSH1 0x1 DUP2 SLOAD ADD DUP1 DUP3 SSTORE DUP1 SWAP2 POP POP PUSH1 0x1 SWAP1 SUB SWAP1 PUSH1 0x0 MSTORE PUSH1 0x20 PUSH1 0x0 KECCAK256 SWAP1 PUSH1 0x2 MUL ADD PUSH1 0x0 SWAP1 SWAP2 SWAP1 SWAP2 SWAP1 SWAP2 POP PUSH1 0x0 DUP3 ADD MLOAD DUP2 PUSH1 0x0 ADD SSTORE PUSH1 0x20 DUP3 ADD MLOAD DUP2 PUSH1 0x1 ADD SWAP1 DUP1 MLOAD SWAP1 PUSH1 0x20 ADD SWAP1 PUSH2 0x3BA SWAP3 SWAP2 SWAP1 PUSH2 0x4FE JUMP JUMPDEST POP POP POP DUP1 PUSH1 0x2 DUP4 PUSH1 0x40 MLOAD DUP1 DUP3 DUP1 MLOAD SWAP1 PUSH1 0x20 ADD SWAP1 DUP1 DUP4 DUP4 JUMPDEST PUSH1 0x20 DUP4 LT PUSH2 0x3F4 JUMPI DUP1 MLOAD DUP3 MSTORE PUSH1 0x20 DUP3 ADD SWAP2 POP PUSH1 0x20 DUP2 ADD SWAP1 POP PUSH1 0x20 DUP4 SUB SWAP3 POP PUSH2 0x3D1 JUMP JUMPDEST PUSH1 0x1 DUP4 PUSH1 0x20 SUB PUSH2 0x100 EXP SUB DUP1 NOT DUP3 MLOAD AND DUP2 DUP5 MLOAD AND DUP1 DUP3 OR DUP6 MSTORE POP POP POP POP POP POP SWAP1 POP ADD SWAP2 POP POP SWAP1 DUP2 MSTORE PUSH1 0x20 ADD PUSH1 0x40 MLOAD DUP1 SWAP2 SUB SWAP1 KECCAK256 DUP2 SWAP1 SSTORE POP POP POP JUMP JUMPDEST PUSH1 0x1 DUP2 DUP2 SLOAD DUP2 LT PUSH2 0x43C JUMPI INVALID JUMPDEST SWAP1 PUSH1 0x0 MSTORE PUSH1 0x20 PUSH1 0x0 KECCAK256 SWAP1 PUSH1 0x2 MUL ADD PUSH1 0x0 SWAP2 POP SWAP1 POP DUP1 PUSH1 0x0 ADD SLOAD SWAP1 DUP1 PUSH1 0x1 ADD DUP1 SLOAD PUSH1 0x1 DUP2 PUSH1 0x1 AND ISZERO PUSH2 0x100 MUL SUB AND PUSH1 0x2 SWAP1 DIV DUP1 PUSH1 0x1F ADD PUSH1 0x20 DUP1 SWAP2 DIV MUL PUSH1 0x20 ADD PUSH1 0x40 MLOAD SWAP1 DUP2 ADD PUSH1 0x40 MSTORE DUP1 SWAP3 SWAP2 SWAP1 DUP2 DUP2 MSTORE PUSH1 0x20 ADD DUP3 DUP1 SLOAD PUSH1 0x1 DUP2 PUSH1 0x1 AND ISZERO PUSH2 0x100 MUL SUB AND PUSH1 0x2 SWAP1 DIV DUP1 ISZERO PUSH2 0x4EE JUMPI DUP1 PUSH1 0x1F LT PUSH2 0x4C3 JUMPI PUSH2 0x100 DUP1 DUP4 SLOAD DIV MUL DUP4 MSTORE SWAP2 PUSH1 0x20 ADD SWAP2 PUSH2 0x4EE JUMP JUMPDEST DUP3 ADD SWAP2 SWAP1 PUSH1 0x0 MSTORE PUSH1 0x20 PUSH1 0x0 KECCAK256 SWAP1 JUMPDEST DUP2 SLOAD DUP2 MSTORE SWAP1 PUSH1 0x1 ADD SWAP1 PUSH1 0x20 ADD DUP1 DUP4 GT PUSH2 0x4D1 JUMPI DUP3 SWAP1 SUB PUSH1 0x1F AND DUP3 ADD SWAP2 JUMPDEST POP POP POP POP POP SWAP1 POP DUP3 JUMP JUMPDEST PUSH1 0x0 SLOAD DUP2 JUMP JUMPDEST DUP3 DUP1 SLOAD PUSH1 0x1 DUP2 PUSH1 0x1 AND ISZERO PUSH2 0x100 MUL SUB AND PUSH1 0x2 SWAP1 DIV SWAP1 PUSH1 0x0 MSTORE PUSH1 0x20 PUSH1 0x0 KECCAK256 SWAP1 PUSH1 0x1F ADD PUSH1 0x20 SWAP1 DIV DUP2 ADD SWAP3 DUP3 PUSH1 0x1F LT PUSH2 0x53F JUMPI DUP1 MLOAD PUSH1 0xFF NOT AND DUP4 DUP1 ADD OR DUP6 SSTORE PUSH2 0x56D JUMP JUMPDEST DUP3 DUP1 ADD PUSH1 0x1 ADD DUP6 SSTORE DUP3 ISZERO PUSH2 0x56D JUMPI SWAP2 DUP3 ADD JUMPDEST DUP3 DUP2 GT ISZERO PUSH2 0x56C JUMPI DUP3 MLOAD DUP3 SSTORE SWAP2 PUSH1 0x20 ADD SWAP2 SWAP1 PUSH1 0x1 ADD SWAP1 PUSH2 0x551 JUMP JUMPDEST JUMPDEST POP SWAP1 POP PUSH2 0x57A SWAP2 SWAP1 PUSH2 0x57E JUMP JUMPDEST POP SWAP1 JUMP JUMPDEST JUMPDEST DUP1 DUP3 GT ISZERO PUSH2 0x597 JUMPI PUSH1 0x0 DUP2 PUSH1 0x0 SWAP1 SSTORE POP PUSH1 0x1 ADD PUSH2 0x57F JUMP JUMPDEST POP SWAP1 JUMP INVALID LOG2 PUSH5 0x6970667358 0x22 SLT KECCAK256 0xCA DIFFICULTY CHAINID RETURNDATASIZE LOG2 0xCD BYTE SWAP2 SWAP7 0xF PUSH28 0x155D37158013E179C231D728CF86EAA958EB6E106364736F6C634300 MOD 0xC STOP CALLER "
				},
				"gasEstimates": {
					"creation": {
						"codeDepositCost": "297800",
						"executionCost": "337",
						"totalCost": "298137"
					},
					"external": {
						"addPerson(string,uint256)": "infinite",
						"favNumber()": "1093",
						"nameToFavNumber(string)": "infinite",
						"people(uint256)": "infinite",
						"retrieve()": "991",
						"store(uint256)": "20264"
					}
				},
				"methodIdentifiers": {
					"addPerson(string,uint256)": "6f760f41",
					"favNumber()": "c7a0d9f6",
					"nameToFavNumber(string)": "43ec8f47",
					"people(uint256)": "9e7a13ad",
					"retrieve()": "2e64cec1",
					"store(uint256)": "6057361d"
				}
			},
			"storageLayout": {
				"storage": [
					{
						"astId": 3,
						"contract": "contracts/SimpleStorage.sol:SimpleStorage",
						"label": "favNumber",
						"offset": 0,
						"slot": "0",
						"type": "t_uint256"
					},
					{
						"astId": 11,
						"contract": "contracts/SimpleStorage.sol:SimpleStorage",
						"label": "people",
						"offset": 0,
						"slot": "1",
						"type": "t_array(t_struct(People)8_storage)dyn_storage"
					},
					{
						"astId": 15,
						"contract": "contracts/SimpleStorage.sol:SimpleStorage",
						"label": "nameToFavNumber",
						"offset": 0,
						"slot": "2",
						"type": "t_mapping(t_string_memory_ptr,t_uint256)"
					}
				],
				"types": {
					"t_array(t_struct(People)8_storage)dyn_storage": {
						"base": "t_struct(People)8_storage",
						"encoding": "dynamic_array",
						"label": "struct SimpleStorage.People[]",
						"numberOfBytes": "32"
					},
					"t_mapping(t_string_memory_ptr,t_uint256)": {
						"encoding": "mapping",
						"key": "t_string_memory_ptr",
						"label": "mapping(string => uint256)",
						"numberOfBytes": "32",
						"value": "t_uint256"
					},
					"t_string_memory_ptr": {
						"encoding": "bytes",
						"label": "string",
						"numberOfBytes": "32"
					},
					"t_string_storage": {
						"encoding": "bytes",
						"label": "string",
						"numberOfBytes": "32"
					},
					"t_struct(People)8_storage": {
						"encoding": "inplace",
						"label": "struct SimpleStorage.People",
						"members": [
							{
								"astId": 5,
								"contract": "contracts/SimpleStorage.sol:SimpleStorage",
								"label": "favNumber",
								"offset": 0,
								"slot": "0",
								"type": "t_uint256"
							},
							{
								"astId": 7,
								"contract": "contracts/SimpleStorage.sol:SimpleStorage",
								"label": "name",
								"offset": 0,
								"slot": "1",
								"type": "t_string_storage"
							}
						],
						"numberOfBytes": "64"
					},
					"t_uint256": {
						"encoding": "inplace",
						"label": "uint256",
						"numberOfBytes": "32"
					}
				}
			},
			"userdoc": {
				"kind": "user",
				"methods": {},
				"version": 1
			}
		}
	}
}