{
	"contracts/Overflow.sol": {
		"Overflow": {
			"abi": [
				{
					"inputs": [],
					"name": "overflow",
					"outputs": [
						{
							"internalType": "uint8",
							"name": "",
							"type": "uint8"
						}
					],
					"stateMutability": "view",
					"type": "function"
				}
			],
			"devdoc": {
				"kind": "dev",
				"methods": {},
				"version": 1
			},
			"evm": {
				"assembly": "    /* \"contracts/Overflow.sol\":57:241  contract Overflow{... */\n  mstore(0x40, 0x80)\n  callvalue\n  dup1\n  iszero\n  tag_1\n  jumpi\n  0x00\n  dup1\n  revert\ntag_1:\n  pop\n  dataSize(sub_0)\n  dup1\n  dataOffset(sub_0)\n  0x00\n  codecopy\n  0x00\n  return\nstop\n\nsub_0: assembly {\n        /* \"contracts/Overflow.sol\":57:241  contract Overflow{... */\n      mstore(0x40, 0x80)\n      callvalue\n      dup1\n      iszero\n      tag_1\n      jumpi\n      0x00\n      dup1\n      revert\n    tag_1:\n      pop\n      jumpi(tag_2, lt(calldatasize, 0x04))\n      shr(0xe0, calldataload(0x00))\n      dup1\n      0x4264c3\n      eq\n      tag_3\n      jumpi\n    tag_2:\n      0x00\n      dup1\n      revert\n        /* \"contracts/Overflow.sol\":81:239  function overflow() public view returns(uint8) {... */\n    tag_3:\n      tag_4\n      tag_5\n      jump\t// in\n    tag_4:\n      mload(0x40)\n      tag_6\n      swap2\n      swap1\n      tag_7\n      jump\t// in\n    tag_6:\n      mload(0x40)\n      dup1\n      swap2\n      sub\n      swap1\n      return\n    tag_5:\n        /* \"contracts/Overflow.sol\":121:126  uint8 */\n      0x00\n        /* \"contracts/Overflow.sol\":186:195  uint8 big */\n      dup1\n        /* \"contracts/Overflow.sol\":210:211  1 */\n      0x01\n        /* \"contracts/Overflow.sol\":198:201  255 */\n      0xff\n        /* \"contracts/Overflow.sol\":198:212  255 + uint8(1) */\n      tag_9\n      swap2\n      swap1\n      tag_10\n      jump\t// in\n    tag_9:\n        /* \"contracts/Overflow.sol\":186:212  uint8 big = 255 + uint8(1) */\n      swap1\n      pop\n        /* \"contracts/Overflow.sol\":229:232  big */\n      dup1\n        /* \"contracts/Overflow.sol\":222:232  return big */\n      swap2\n      pop\n      pop\n        /* \"contracts/Overflow.sol\":81:239  function overflow() public view returns(uint8) {... */\n      swap1\n      jump\t// out\n        /* \"#utility.yul\":7:93   */\n    tag_11:\n        /* \"#utility.yul\":42:49   */\n      0x00\n        /* \"#utility.yul\":82:86   */\n      0xff\n        /* \"#utility.yul\":75:80   */\n      dup3\n        /* \"#utility.yul\":71:87   */\n      and\n        /* \"#utility.yul\":60:87   */\n      swap1\n      pop\n        /* \"#utility.yul\":7:93   */\n      swap2\n      swap1\n      pop\n      jump\t// out\n        /* \"#utility.yul\":99:211   */\n    tag_12:\n        /* \"#utility.yul\":182:204   */\n      tag_17\n        /* \"#utility.yul\":198:203   */\n      dup2\n        /* \"#utility.yul\":182:204   */\n      tag_11\n      jump\t// in\n    tag_17:\n        /* \"#utility.yul\":177:180   */\n      dup3\n        /* \"#utility.yul\":170:205   */\n      mstore\n        /* \"#utility.yul\":99:211   */\n      pop\n      pop\n      jump\t// out\n        /* \"#utility.yul\":217:431   */\n    tag_7:\n        /* \"#utility.yul\":306:310   */\n      0x00\n        /* \"#utility.yul\":344:346   */\n      0x20\n        /* \"#utility.yul\":333:342   */\n      dup3\n        /* \"#utility.yul\":329:347   */\n      add\n        /* \"#utility.yul\":321:347   */\n      swap1\n      pop\n        /* \"#utility.yul\":357:424   */\n      tag_19\n        /* \"#utility.yul\":421:422   */\n      0x00\n        /* \"#utility.yul\":410:419   */\n      dup4\n        /* \"#utility.yul\":406:423   */\n      add\n        /* \"#utility.yul\":397:403   */\n      dup5\n        /* \"#utility.yul\":357:424   */\n      tag_12\n      jump\t// in\n    tag_19:\n        /* \"#utility.yul\":217:431   */\n      swap3\n      swap2\n      pop\n      pop\n      jump\t// out\n        /* \"#utility.yul\":437:617   */\n    tag_13:\n        /* \"#utility.yul\":485:562   */\n      0x4e487b7100000000000000000000000000000000000000000000000000000000\n        /* \"#utility.yul\":482:483   */\n      0x00\n        /* \"#utility.yul\":475:563   */\n      mstore\n        /* \"#utility.yul\":582:586   */\n      0x11\n        /* \"#utility.yul\":579:580   */\n      0x04\n        /* \"#utility.yul\":572:587   */\n      mstore\n        /* \"#utility.yul\":606:610   */\n      0x24\n        /* \"#utility.yul\":603:604   */\n      0x00\n        /* \"#utility.yul\":596:611   */\n      revert\n        /* \"#utility.yul\":623:811   */\n    tag_10:\n        /* \"#utility.yul\":661:664   */\n      0x00\n        /* \"#utility.yul\":680:698   */\n      tag_22\n        /* \"#utility.yul\":696:697   */\n      dup3\n        /* \"#utility.yul\":680:698   */\n      tag_11\n      jump\t// in\n    tag_22:\n        /* \"#utility.yul\":675:698   */\n      swap2\n      pop\n        /* \"#utility.yul\":712:730   */\n      tag_23\n        /* \"#utility.yul\":728:729   */\n      dup4\n        /* \"#utility.yul\":712:730   */\n      tag_11\n      jump\t// in\n    tag_23:\n        /* \"#utility.yul\":707:730   */\n      swap3\n      pop\n        /* \"#utility.yul\":753:754   */\n      dup3\n        /* \"#utility.yul\":750:751   */\n      dup3\n        /* \"#utility.yul\":746:755   */\n      add\n        /* \"#utility.yul\":739:755   */\n      swap1\n      pop\n        /* \"#utility.yul\":776:780   */\n      0xff\n        /* \"#utility.yul\":771:774   */\n      dup2\n        /* \"#utility.yul\":768:781   */\n      gt\n        /* \"#utility.yul\":765:804   */\n      iszero\n      tag_24\n      jumpi\n        /* \"#utility.yul\":784:802   */\n      tag_25\n      tag_13\n      jump\t// in\n    tag_25:\n        /* \"#utility.yul\":765:804   */\n    tag_24:\n        /* \"#utility.yul\":623:811   */\n      swap3\n      swap2\n      pop\n      pop\n      jump\t// out\n\n    auxdata: 0xa2646970667358221220a4528f3d98d86e1ede45cacb97b4dbcfc0ed4b14280af21102e81480439cf02864736f6c63430008120033\n}\n",
				"bytecode": {
					"linkReferences": {},
					"object": "608060405234801561001057600080fd5b50610124806100206000396000f3fe6080604052348015600f57600080fd5b506004361060275760003560e01c80624264c314602c575b600080fd5b60326046565b604051603d91906078565b60405180910390f35b600080600160ff6055919060c0565b90508091505090565b600060ff82169050919050565b607281605e565b82525050565b6000602082019050608b6000830184606b565b92915050565b7f4e487b7100000000000000000000000000000000000000000000000000000000600052601160045260246000fd5b600060c982605e565b915060d283605e565b9250828201905060ff81111560e85760e76091565b5b9291505056fea2646970667358221220a4528f3d98d86e1ede45cacb97b4dbcfc0ed4b14280af21102e81480439cf02864736f6c63430008120033",
					"opcodes": "PUSH1 0x80 PUSH1 0x40 MSTORE CALLVALUE DUP1 ISZERO PUSH2 0x10 JUMPI PUSH1 0x0 DUP1 REVERT JUMPDEST POP PUSH2 0x124 DUP1 PUSH2 0x20 PUSH1 0x0 CODECOPY PUSH1 0x0 RETURN INVALID PUSH1 0x80 PUSH1 0x40 MSTORE CALLVALUE DUP1 ISZERO PUSH1 0xF JUMPI PUSH1 0x0 DUP1 REVERT JUMPDEST POP PUSH1 0x4 CALLDATASIZE LT PUSH1 0x27 JUMPI PUSH1 0x0 CALLDATALOAD PUSH1 0xE0 SHR DUP1 PUSH3 0x4264C3 EQ PUSH1 0x2C JUMPI JUMPDEST PUSH1 0x0 DUP1 REVERT JUMPDEST PUSH1 0x32 PUSH1 0x46 JUMP JUMPDEST PUSH1 0x40 MLOAD PUSH1 0x3D SWAP2 SWAP1 PUSH1 0x78 JUMP JUMPDEST PUSH1 0x40 MLOAD DUP1 SWAP2 SUB SWAP1 RETURN JUMPDEST PUSH1 0x0 DUP1 PUSH1 0x1 PUSH1 0xFF PUSH1 0x55 SWAP2 SWAP1 PUSH1 0xC0 JUMP JUMPDEST SWAP1 POP DUP1 SWAP2 POP POP SWAP1 JUMP JUMPDEST PUSH1 0x0 PUSH1 0xFF DUP3 AND SWAP1 POP SWAP2 SWAP1 POP JUMP JUMPDEST PUSH1 0x72 DUP2 PUSH1 0x5E JUMP JUMPDEST DUP3 MSTORE POP POP JUMP JUMPDEST PUSH1 0x0 PUSH1 0x20 DUP3 ADD SWAP1 POP PUSH1 0x8B PUSH1 0x0 DUP4 ADD DUP5 PUSH1 0x6B JUMP JUMPDEST SWAP3 SWAP2 POP POP JUMP JUMPDEST PUSH32 0x4E487B7100000000000000000000000000000000000000000000000000000000 PUSH1 0x0 MSTORE PUSH1 0x11 PUSH1 0x4 MSTORE PUSH1 0x24 PUSH1 0x0 REVERT JUMPDEST PUSH1 0x0 PUSH1 0xC9 DUP3 PUSH1 0x5E JUMP JUMPDEST SWAP2 POP PUSH1 0xD2 DUP4 PUSH1 0x5E JUMP JUMPDEST SWAP3 POP DUP3 DUP3 ADD SWAP1 POP PUSH1 0xFF DUP2 GT ISZERO PUSH1 0xE8 JUMPI PUSH1 0xE7 PUSH1 0x91 JUMP JUMPDEST JUMPDEST SWAP3 SWAP2 POP POP JUMP INVALID LOG2 PUSH5 0x6970667358 0x22 SLT KECCAK256 LOG4 MSTORE DUP16 RETURNDATASIZE SWAP9 0xD8 PUSH15 0x1EDE45CACB97B4DBCFC0ED4B14280A CALLCODE GT MUL 0xE8 EQ DUP1 NUMBER SWAP13 CREATE 0x28 PUSH5 0x736F6C6343 STOP ADDMOD SLT STOP CALLER "
				},
				"gasEstimates": {
					"creation": {
						"codeDepositCost": "58400",
						"executionCost": "111",
						"totalCost": "58511"
					},
					"external": {
						"overflow()": "infinite"
					}
				},
				"methodIdentifiers": {
					"overflow()": "004264c3"
				}
			},
			"storageLayout": {
				"storage": [],
				"types": null
			},
			"userdoc": {
				"kind": "user",
				"methods": {},
				"version": 1
			}
		}
	}
}