{
	"data": {
		"bytecode": {
			"linkReferences": {},
			"object": "608060405234801561001057600080fd5b5061070f806100206000396000f3fe60806040526004361061004a5760003560e01c80630d8e6e2c1461004f5780633e47d6f31461007a5780636e5b6b28146100b757806398d5fdca146100f4578063b60d42881461011f575b600080fd5b34801561005b57600080fd5b50610064610129565b6040516100719190610323565b60405180910390f35b34801561008657600080fd5b506100a1600480360381019061009c91906103a1565b6101b8565b6040516100ae9190610323565b60405180910390f35b3480156100c357600080fd5b506100de60048036038101906100d991906103fa565b6101d0565b6040516100eb9190610323565b60405180910390f35b34801561010057600080fd5b5061010961020a565b6040516101169190610323565b60405180910390f35b6101276102b3565b005b60008073d4a33860578de61dbabdc8bfdb98fd742fa7028e90508073ffffffffffffffffffffffffffffffffffffffff166354fd4d506040518163ffffffff1660e01b8152600401602060405180830381865afa15801561018e573d6000803e3d6000fd5b505050506040513d601f19601f820116820180604052508101906101b2919061043c565b91505090565b60006020528060005260406000206000915090505481565b6000806101db61020a565b90506000670de0b6b3a764000084836101f49190610498565b6101fe9190610509565b90508092505050919050565b60008073d4a33860578de61dbabdc8bfdb98fd742fa7028e905060008173ffffffffffffffffffffffffffffffffffffffff1663feaf968c6040518163ffffffff1660e01b815260040160a060405180830381865afa158015610271573d6000803e3d6000fd5b505050506040513d601f19601f8201168201806040525081019061029591906105b2565b5050509150506402540be400816102ac919061062d565b9250505090565b346000803373ffffffffffffffffffffffffffffffffffffffff1673ffffffffffffffffffffffffffffffffffffffff168152602001908152602001600020600082825461030191906106a5565b92505081905550565b6000819050919050565b61031d8161030a565b82525050565b60006020820190506103386000830184610314565b92915050565b600080fd5b600073ffffffffffffffffffffffffffffffffffffffff82169050919050565b600061036e82610343565b9050919050565b61037e81610363565b811461038957600080fd5b50565b60008135905061039b81610375565b92915050565b6000602082840312156103b7576103b661033e565b5b60006103c58482850161038c565b91505092915050565b6103d78161030a565b81146103e257600080fd5b50565b6000813590506103f4816103ce565b92915050565b6000602082840312156104105761040f61033e565b5b600061041e848285016103e5565b91505092915050565b600081519050610436816103ce565b92915050565b6000602082840312156104525761045161033e565b5b600061046084828501610427565b91505092915050565b7f4e487b7100000000000000000000000000000000000000000000000000000000600052601160045260246000fd5b60006104a38261030a565b91506104ae8361030a565b92508282026104bc8161030a565b915082820484148315176104d3576104d2610469565b5b5092915050565b7f4e487b7100000000000000000000000000000000000000000000000000000000600052601260045260246000fd5b60006105148261030a565b915061051f8361030a565b92508261052f5761052e6104da565b5b828204905092915050565b600069ffffffffffffffffffff82169050919050565b6105598161053a565b811461056457600080fd5b50565b60008151905061057681610550565b92915050565b6000819050919050565b61058f8161057c565b811461059a57600080fd5b50565b6000815190506105ac81610586565b92915050565b600080600080600060a086880312156105ce576105cd61033e565b5b60006105dc88828901610567565b95505060206105ed8882890161059d565b94505060406105fe88828901610427565b935050606061060f88828901610427565b925050608061062088828901610567565b9150509295509295909350565b60006106388261057c565b91506106438361057c565b92508282026106518161057c565b91507f8000000000000000000000000000000000000000000000000000000000000000841460008412161561068957610688610469565b5b828205841483151761069e5761069d610469565b5b5092915050565b60006106b08261030a565b91506106bb8361030a565b92508282019050808211156106d3576106d2610469565b5b9291505056fea26469706673582212208a6ed6d0b42ca131ecf48a3828868c0a31265b6580b4931d9a3e41dcf1fd0d6064736f6c63430008120033",
			"opcodes": "PUSH1 0x80 PUSH1 0x40 MSTORE CALLVALUE DUP1 ISZERO PUSH2 0x10 JUMPI PUSH1 0x0 DUP1 REVERT JUMPDEST POP PUSH2 0x70F DUP1 PUSH2 0x20 PUSH1 0x0 CODECOPY PUSH1 0x0 RETURN INVALID PUSH1 0x80 PUSH1 0x40 MSTORE PUSH1 0x4 CALLDATASIZE LT PUSH2 0x4A JUMPI PUSH1 0x0 CALLDATALOAD PUSH1 0xE0 SHR DUP1 PUSH4 0xD8E6E2C EQ PUSH2 0x4F JUMPI DUP1 PUSH4 0x3E47D6F3 EQ PUSH2 0x7A JUMPI DUP1 PUSH4 0x6E5B6B28 EQ PUSH2 0xB7 JUMPI DUP1 PUSH4 0x98D5FDCA EQ PUSH2 0xF4 JUMPI DUP1 PUSH4 0xB60D4288 EQ PUSH2 0x11F JUMPI JUMPDEST PUSH1 0x0 DUP1 REVERT JUMPDEST CALLVALUE DUP1 ISZERO PUSH2 0x5B JUMPI PUSH1 0x0 DUP1 REVERT JUMPDEST POP PUSH2 0x64 PUSH2 0x129 JUMP JUMPDEST PUSH1 0x40 MLOAD PUSH2 0x71 SWAP2 SWAP1 PUSH2 0x323 JUMP JUMPDEST PUSH1 0x40 MLOAD DUP1 SWAP2 SUB SWAP1 RETURN JUMPDEST CALLVALUE DUP1 ISZERO PUSH2 0x86 JUMPI PUSH1 0x0 DUP1 REVERT JUMPDEST POP PUSH2 0xA1 PUSH1 0x4 DUP1 CALLDATASIZE SUB DUP2 ADD SWAP1 PUSH2 0x9C SWAP2 SWAP1 PUSH2 0x3A1 JUMP JUMPDEST PUSH2 0x1B8 JUMP JUMPDEST PUSH1 0x40 MLOAD PUSH2 0xAE SWAP2 SWAP1 PUSH2 0x323 JUMP JUMPDEST PUSH1 0x40 MLOAD DUP1 SWAP2 SUB SWAP1 RETURN JUMPDEST CALLVALUE DUP1 ISZERO PUSH2 0xC3 JUMPI PUSH1 0x0 DUP1 REVERT JUMPDEST POP PUSH2 0xDE PUSH1 0x4 DUP1 CALLDATASIZE SUB DUP2 ADD SWAP1 PUSH2 0xD9 SWAP2 SWAP1 PUSH2 0x3FA JUMP JUMPDEST PUSH2 0x1D0 JUMP JUMPDEST PUSH1 0x40 MLOAD PUSH2 0xEB SWAP2 SWAP1 PUSH2 0x323 JUMP JUMPDEST PUSH1 0x40 MLOAD DUP1 SWAP2 SUB SWAP1 RETURN JUMPDEST CALLVALUE DUP1 ISZERO PUSH2 0x100 JUMPI PUSH1 0x0 DUP1 REVERT JUMPDEST POP PUSH2 0x109 PUSH2 0x20A JUMP JUMPDEST PUSH1 0x40 MLOAD PUSH2 0x116 SWAP2 SWAP1 PUSH2 0x323 JUMP JUMPDEST PUSH1 0x40 MLOAD DUP1 SWAP2 SUB SWAP1 RETURN JUMPDEST PUSH2 0x127 PUSH2 0x2B3 JUMP JUMPDEST STOP JUMPDEST PUSH1 0x0 DUP1 PUSH20 0xD4A33860578DE61DBABDC8BFDB98FD742FA7028E SWAP1 POP DUP1 PUSH20 0xFFFFFFFFFFFFFFFFFFFFFFFFFFFFFFFFFFFFFFFF AND PUSH4 0x54FD4D50 PUSH1 0x40 MLOAD DUP2 PUSH4 0xFFFFFFFF AND PUSH1 0xE0 SHL DUP2 MSTORE PUSH1 0x4 ADD PUSH1 0x20 PUSH1 0x40 MLOAD DUP1 DUP4 SUB DUP2 DUP7 GAS STATICCALL ISZERO DUP1 ISZERO PUSH2 0x18E JUMPI RETURNDATASIZE PUSH1 0x0 DUP1 RETURNDATACOPY RETURNDATASIZE PUSH1 0x0 REVERT JUMPDEST POP POP POP POP PUSH1 0x40 MLOAD RETURNDATASIZE PUSH1 0x1F NOT PUSH1 0x1F DUP3 ADD AND DUP3 ADD DUP1 PUSH1 0x40 MSTORE POP DUP2 ADD SWAP1 PUSH2 0x1B2 SWAP2 SWAP1 PUSH2 0x43C JUMP JUMPDEST SWAP2 POP POP SWAP1 JUMP JUMPDEST PUSH1 0x0 PUSH1 0x20 MSTORE DUP1 PUSH1 0x0 MSTORE PUSH1 0x40 PUSH1 0x0 KECCAK256 PUSH1 0x0 SWAP2 POP SWAP1 POP SLOAD DUP2 JUMP JUMPDEST PUSH1 0x0 DUP1 PUSH2 0x1DB PUSH2 0x20A JUMP JUMPDEST SWAP1 POP PUSH1 0x0 PUSH8 0xDE0B6B3A7640000 DUP5 DUP4 PUSH2 0x1F4 SWAP2 SWAP1 PUSH2 0x498 JUMP JUMPDEST PUSH2 0x1FE SWAP2 SWAP1 PUSH2 0x509 JUMP JUMPDEST SWAP1 POP DUP1 SWAP3 POP POP POP SWAP2 SWAP1 POP JUMP JUMPDEST PUSH1 0x0 DUP1 PUSH20 0xD4A33860578DE61DBABDC8BFDB98FD742FA7028E SWAP1 POP PUSH1 0x0 DUP2 PUSH20 0xFFFFFFFFFFFFFFFFFFFFFFFFFFFFFFFFFFFFFFFF AND PUSH4 0xFEAF968C PUSH1 0x40 MLOAD DUP2 PUSH4 0xFFFFFFFF AND PUSH1 0xE0 SHL DUP2 MSTORE PUSH1 0x4 ADD PUSH1 0xA0 PUSH1 0x40 MLOAD DUP1 DUP4 SUB DUP2 DUP7 GAS STATICCALL ISZERO DUP1 ISZERO PUSH2 0x271 JUMPI RETURNDATASIZE PUSH1 0x0 DUP1 RETURNDATACOPY RETURNDATASIZE PUSH1 0x0 REVERT JUMPDEST POP POP POP POP PUSH1 0x40 MLOAD RETURNDATASIZE PUSH1 0x1F NOT PUSH1 0x1F DUP3 ADD AND DUP3 ADD DUP1 PUSH1 0x40 MSTORE POP DUP2 ADD SWAP1 PUSH2 0x295 SWAP2 SWAP1 PUSH2 0x5B2 JUMP JUMPDEST POP POP POP SWAP2 POP POP PUSH5 0x2540BE400 DUP2 PUSH2 0x2AC SWAP2 SWAP1 PUSH2 0x62D JUMP JUMPDEST SWAP3 POP POP POP SWAP1 JUMP JUMPDEST CALLVALUE PUSH1 0x0 DUP1 CALLER PUSH20 0xFFFFFFFFFFFFFFFFFFFFFFFFFFFFFFFFFFFFFFFF AND PUSH20 0xFFFFFFFFFFFFFFFFFFFFFFFFFFFFFFFFFFFFFFFF AND DUP2 MSTORE PUSH1 0x20 ADD SWAP1 DUP2 MSTORE PUSH1 0x20 ADD PUSH1 0x0 KECCAK256 PUSH1 0x0 DUP3 DUP3 SLOAD PUSH2 0x301 SWAP2 SWAP1 PUSH2 0x6A5 JUMP JUMPDEST SWAP3 POP POP DUP2 SWAP1 SSTORE POP JUMP JUMPDEST PUSH1 0x0 DUP2 SWAP1 POP SWAP2 SWAP1 POP JUMP JUMPDEST PUSH2 0x31D DUP2 PUSH2 0x30A JUMP JUMPDEST DUP3 MSTORE POP POP JUMP JUMPDEST PUSH1 0x0 PUSH1 0x20 DUP3 ADD SWAP1 POP PUSH2 0x338 PUSH1 0x0 DUP4 ADD DUP5 PUSH2 0x314 JUMP JUMPDEST SWAP3 SWAP2 POP POP JUMP JUMPDEST PUSH1 0x0 DUP1 REVERT JUMPDEST PUSH1 0x0 PUSH20 0xFFFFFFFFFFFFFFFFFFFFFFFFFFFFFFFFFFFFFFFF DUP3 AND SWAP1 POP SWAP2 SWAP1 POP JUMP JUMPDEST PUSH1 0x0 PUSH2 0x36E DUP3 PUSH2 0x343 JUMP JUMPDEST SWAP1 POP SWAP2 SWAP1 POP JUMP JUMPDEST PUSH2 0x37E DUP2 PUSH2 0x363 JUMP JUMPDEST DUP2 EQ PUSH2 0x389 JUMPI PUSH1 0x0 DUP1 REVERT JUMPDEST POP JUMP JUMPDEST PUSH1 0x0 DUP2 CALLDATALOAD SWAP1 POP PUSH2 0x39B DUP2 PUSH2 0x375 JUMP JUMPDEST SWAP3 SWAP2 POP POP JUMP JUMPDEST PUSH1 0x0 PUSH1 0x20 DUP3 DUP5 SUB SLT ISZERO PUSH2 0x3B7 JUMPI PUSH2 0x3B6 PUSH2 0x33E JUMP JUMPDEST JUMPDEST PUSH1 0x0 PUSH2 0x3C5 DUP5 DUP3 DUP6 ADD PUSH2 0x38C JUMP JUMPDEST SWAP2 POP POP SWAP3 SWAP2 POP POP JUMP JUMPDEST PUSH2 0x3D7 DUP2 PUSH2 0x30A JUMP JUMPDEST DUP2 EQ PUSH2 0x3E2 JUMPI PUSH1 0x0 DUP1 REVERT JUMPDEST POP JUMP JUMPDEST PUSH1 0x0 DUP2 CALLDATALOAD SWAP1 POP PUSH2 0x3F4 DUP2 PUSH2 0x3CE JUMP JUMPDEST SWAP3 SWAP2 POP POP JUMP JUMPDEST PUSH1 0x0 PUSH1 0x20 DUP3 DUP5 SUB SLT ISZERO PUSH2 0x410 JUMPI PUSH2 0x40F PUSH2 0x33E JUMP JUMPDEST JUMPDEST PUSH1 0x0 PUSH2 0x41E DUP5 DUP3 DUP6 ADD PUSH2 0x3E5 JUMP JUMPDEST SWAP2 POP POP SWAP3 SWAP2 POP POP JUMP JUMPDEST PUSH1 0x0 DUP2 MLOAD SWAP1 POP PUSH2 0x436 DUP2 PUSH2 0x3CE JUMP JUMPDEST SWAP3 SWAP2 POP POP JUMP JUMPDEST PUSH1 0x0 PUSH1 0x20 DUP3 DUP5 SUB SLT ISZERO PUSH2 0x452 JUMPI PUSH2 0x451 PUSH2 0x33E JUMP JUMPDEST JUMPDEST PUSH1 0x0 PUSH2 0x460 DUP5 DUP3 DUP6 ADD PUSH2 0x427 JUMP JUMPDEST SWAP2 POP POP SWAP3 SWAP2 POP POP JUMP JUMPDEST PUSH32 0x4E487B7100000000000000000000000000000000000000000000000000000000 PUSH1 0x0 MSTORE PUSH1 0x11 PUSH1 0x4 MSTORE PUSH1 0x24 PUSH1 0x0 REVERT JUMPDEST PUSH1 0x0 PUSH2 0x4A3 DUP3 PUSH2 0x30A JUMP JUMPDEST SWAP2 POP PUSH2 0x4AE DUP4 PUSH2 0x30A JUMP JUMPDEST SWAP3 POP DUP3 DUP3 MUL PUSH2 0x4BC DUP2 PUSH2 0x30A JUMP JUMPDEST SWAP2 POP DUP3 DUP3 DIV DUP5 EQ DUP4 ISZERO OR PUSH2 0x4D3 JUMPI PUSH2 0x4D2 PUSH2 0x469 JUMP JUMPDEST JUMPDEST POP SWAP3 SWAP2 POP POP JUMP JUMPDEST PUSH32 0x4E487B7100000000000000000000000000000000000000000000000000000000 PUSH1 0x0 MSTORE PUSH1 0x12 PUSH1 0x4 MSTORE PUSH1 0x24 PUSH1 0x0 REVERT JUMPDEST PUSH1 0x0 PUSH2 0x514 DUP3 PUSH2 0x30A JUMP JUMPDEST SWAP2 POP PUSH2 0x51F DUP4 PUSH2 0x30A JUMP JUMPDEST SWAP3 POP DUP3 PUSH2 0x52F JUMPI PUSH2 0x52E PUSH2 0x4DA JUMP JUMPDEST JUMPDEST DUP3 DUP3 DIV SWAP1 POP SWAP3 SWAP2 POP POP JUMP JUMPDEST PUSH1 0x0 PUSH10 0xFFFFFFFFFFFFFFFFFFFF DUP3 AND SWAP1 POP SWAP2 SWAP1 POP JUMP JUMPDEST PUSH2 0x559 DUP2 PUSH2 0x53A JUMP JUMPDEST DUP2 EQ PUSH2 0x564 JUMPI PUSH1 0x0 DUP1 REVERT JUMPDEST POP JUMP JUMPDEST PUSH1 0x0 DUP2 MLOAD SWAP1 POP PUSH2 0x576 DUP2 PUSH2 0x550 JUMP JUMPDEST SWAP3 SWAP2 POP POP JUMP JUMPDEST PUSH1 0x0 DUP2 SWAP1 POP SWAP2 SWAP1 POP JUMP JUMPDEST PUSH2 0x58F DUP2 PUSH2 0x57C JUMP JUMPDEST DUP2 EQ PUSH2 0x59A JUMPI PUSH1 0x0 DUP1 REVERT JUMPDEST POP JUMP JUMPDEST PUSH1 0x0 DUP2 MLOAD SWAP1 POP PUSH2 0x5AC DUP2 PUSH2 0x586 JUMP JUMPDEST SWAP3 SWAP2 POP POP JUMP JUMPDEST PUSH1 0x0 DUP1 PUSH1 0x0 DUP1 PUSH1 0x0 PUSH1 0xA0 DUP7 DUP9 SUB SLT ISZERO PUSH2 0x5CE JUMPI PUSH2 0x5CD PUSH2 0x33E JUMP JUMPDEST JUMPDEST PUSH1 0x0 PUSH2 0x5DC DUP9 DUP3 DUP10 ADD PUSH2 0x567 JUMP JUMPDEST SWAP6 POP POP PUSH1 0x20 PUSH2 0x5ED DUP9 DUP3 DUP10 ADD PUSH2 0x59D JUMP JUMPDEST SWAP5 POP POP PUSH1 0x40 PUSH2 0x5FE DUP9 DUP3 DUP10 ADD PUSH2 0x427 JUMP JUMPDEST SWAP4 POP POP PUSH1 0x60 PUSH2 0x60F DUP9 DUP3 DUP10 ADD PUSH2 0x427 JUMP JUMPDEST SWAP3 POP POP PUSH1 0x80 PUSH2 0x620 DUP9 DUP3 DUP10 ADD PUSH2 0x567 JUMP JUMPDEST SWAP2 POP POP SWAP3 SWAP6 POP SWAP3 SWAP6 SWAP1 SWAP4 POP JUMP JUMPDEST PUSH1 0x0 PUSH2 0x638 DUP3 PUSH2 0x57C JUMP JUMPDEST SWAP2 POP PUSH2 0x643 DUP4 PUSH2 0x57C JUMP JUMPDEST SWAP3 POP DUP3 DUP3 MUL PUSH2 0x651 DUP2 PUSH2 0x57C JUMP JUMPDEST SWAP2 POP PUSH32 0x8000000000000000000000000000000000000000000000000000000000000000 DUP5 EQ PUSH1 0x0 DUP5 SLT AND ISZERO PUSH2 0x689 JUMPI PUSH2 0x688 PUSH2 0x469 JUMP JUMPDEST JUMPDEST DUP3 DUP3 SDIV DUP5 EQ DUP4 ISZERO OR PUSH2 0x69E JUMPI PUSH2 0x69D PUSH2 0x469 JUMP JUMPDEST JUMPDEST POP SWAP3 SWAP2 POP POP JUMP JUMPDEST PUSH1 0x0 PUSH2 0x6B0 DUP3 PUSH2 0x30A JUMP JUMPDEST SWAP2 POP PUSH2 0x6BB DUP4 PUSH2 0x30A JUMP JUMPDEST SWAP3 POP DUP3 DUP3 ADD SWAP1 POP DUP1 DUP3 GT ISZERO PUSH2 0x6D3 JUMPI PUSH2 0x6D2 PUSH2 0x469 JUMP JUMPDEST JUMPDEST SWAP3 SWAP2 POP POP JUMP INVALID LOG2 PUSH5 0x6970667358 0x22 SLT KECCAK256 DUP11 PUSH15 0xD6D0B42CA131ECF48A3828868C0A31 0x26 JUMPDEST PUSH6 0x80B4931D9A3E COINBASE 0xDC CALL REVERT 0xD PUSH1 0x64 PUSH20 0x6F6C634300081200330000000000000000000000 "
		},
		"gasEstimates": {
			"creation": {
				"codeDepositCost": "361400",
				"executionCost": "399",
				"totalCost": "361799"
			},
			"external": {
				"addressToAmountFunded(address)": "2814",
				"fund()": "infinite",
				"getConversionRate(uint256)": "infinite",
				"getPrice()": "infinite",
				"getVersion()": "infinite"
			}
		},
		"methodIdentifiers": {
			"addressToAmountFunded(address)": "3e47d6f3",
			"fund()": "b60d4288",
			"getConversionRate(uint256)": "6e5b6b28",
			"getPrice()": "98d5fdca",
			"getVersion()": "0d8e6e2c"
		}
	},
	"abi": [
		{
			"inputs": [
				{
					"internalType": "address",
					"name": "",
					"type": "address"
				}
			],
			"name": "addressToAmountFunded",
			"outputs": [
				{
					"internalType": "uint256",
					"name": "",
					"type": "uint256"
				}
			],
			"stateMutability": "view",
			"type": "function"
		},
		{
			"inputs": [],
			"name": "fund",
			"outputs": [],
			"stateMutability": "payable",
			"type": "function"
		},
		{
			"inputs": [
				{
					"internalType": "uint256",
					"name": "ethAmount",
					"type": "uint256"
				}
			],
			"name": "getConversionRate",
			"outputs": [
				{
					"internalType": "uint256",
					"name": "",
					"type": "uint256"
				}
			],
			"stateMutability": "view",
			"type": "function"
		},
		{
			"inputs": [],
			"name": "getPrice",
			"outputs": [
				{
					"internalType": "uint256",
					"name": "",
					"type": "uint256"
				}
			],
			"stateMutability": "view",
			"type": "function"
		},
		{
			"inputs": [],
			"name": "getVersion",
			"outputs": [
				{
					"internalType": "uint256",
					"name": "",
					"type": "uint256"
				}
			],
			"stateMutability": "view",
			"type": "function"
		}
	]
}